:1000000055C600000C94DF100C94B4100C948910A9
:100010000C945E100C9433100C9408100C94DD0FAB
:100020000C94B20F0C94AA1572C600000C943F15E4
:100030000C94862A6CC600006AC6000068C60000E0
:1000400066C6000064C6000062C6000060C600000C
:100050005EC600005CC600005AC600000C94170F74
:1000600056C600000C940D120C94E41150C600000A
:100070004EC600004CC600004AC6000048C600003C
:1000800046C6000044C6000042C6000040C600004C
:100090003EC600003CC600003AC600000C94141690
:1000A00036C6000034C6000032C6000030C600006C
:1000B0002EC600002CC600002AC6000028C600007C
:1000C00026C6000024C6000022C600000C94BB1106
:1000D0000C9492111CC600001AC6000018C600003D
:1000E00016C60000CD0BD00BBF0BC30BC90B070C02
:1000F000D40BD80BDE0BE20BE60BEC0BF00BF40B86
:10010000070CFA0BFE0B020C330E380E3D0E470E99
:10011000510ECA0E5B0E630E6B0E750E7F0E890EAE
:10012000980EA20ECA0EAC0EB60EC00E2B2F2B2FA1
:100130002B2FF72E4E2F5C2F2B2F2B2FF72E4E2FE2
:10014000084AD73B3BCE016E84BCBFFDC12F3D6C3E
:1001500074319ABD56833DDA3D00C77F11BED9E4A4
:10016000BB4C3E916BAAAABE000000803F0001B2CA
:1001700002FFFF0190040923A135016A0206000174
:100180006008000000000000000000600440000063
:1001900000016202000000600400400000037B03D5
:1001A0004CCD6C03AB0336567600680402CB47A2F5
:1001B00002180400058BC1010C0400000000037F3D
:1001C000060CC92C979797038903264666006C0294
:1001D000200002400400000000024404000000006F
:1001E00002480400000000024C040000000002501D
:1001F0000400000000025404000000000258040043
:10020000000000025C040000000002BC04000000CA
:100210000001EC0400004000037F060CC92C9797F6
:10022000970402030D355D040904872D353D00A3B5
:10023000010000000001078601FE074105F12028AA
:100240003038077E01300746019A074704F128300D
:1002500038076C04F12830380216020001FB000058
:100260003E000B00360001000200030000006500A4
:1002700054FFEF0000FA80000B1282000100020020
:100280000000000000000000000000000000280046
:1002900000FFFF4581FFFFFA72000000000000032D
:1002A000E80000000100017FFFFFFE8001001B004D
:1002B00000000000000000000000000000003E03FD
:1002C000304000000002CAE3093E80000020000028
:1002D0000000000000400000006000000041FF003E
:1002E0000000000B2A0000165500002182FD872621
:1002F00050FD800000001F0000000580000000008D
:1003000000000100000002000000030000400000A7
:10031000000000046F0002653200005EC040000073
:1003200000000000000000000000000000FB8C6FD7
:100330005DFD5D08D9007C733B006C12CC3200136C
:100340009D3200D0D632000800400001F4FFE68064
:1003500079020000000000D0D600002710FB00004A
:10036000004000000000000000000000000000004D
:10037000010000000000000100010000000000FA80
:1003800036FFBC308E0005FBF0FFD95BC8FFD09A6A
:10039000BE000010A9FFF41EB200CEBBF7000000A3
:1003A0000100000004000200020200000CFFC280F5
:1003B000000001800000CF8000400000000000002D
:1003C0000100000000000006000000001400000012
:1003D000000000000000000000000000000000001D
:1003E000000000000000000000000000000000000D
:1003F00000000000000000000000000000000000FD
:1004000000033F68B6793528BCC67ED16C800000F9
:1004100000400000000000B26A0000000000000080
:10042000000000000000003FF0000000300000006D
:1004300000000000000000000000000000000000BC
:100440000000000000000000000000000000002587
:100450004D002F706D000005AE000C02D0000000B2
:100460000000650054FFEF000000000000000001E4
:10047000000044000000000C00000001000000002B
:10048000000065000000540000FFEF0000000000C5
:10049000000000000000000000000000004000001C
:1004A000000000000000000000000000004000000C
:1004B000000000000000000000000000000000003C
:1004C0000100000002000000000000000000000029
:1004D000000000000000000000000000000000001C
:1004E00000000000000000000000000000001B00F1
:1004F00000000000000000000000000000000000FC
:1005000000000000000000000000000000000000EB
:1005100000000000000000000040000000001B0080
:1005200000000000000000000000000000000000CB
:1005300000000000000000000000000000000000BB
:1005400000000000000000000000000000000000AB
:1005500000000000000000000000000000D8DCBA2D
:10056000A2F1DEB2B8B4A88191F74A907F916AF304
:10057000F9DBA8F9B0BAA080F2CE81F3C2F1C1F2E2
:10058000C3F3CCA2B280F1C6D880BAA7DFDFDFF216
:10059000A7C3CBC5B6F087A2942448703C954068A9
:1005A00034589B78A2F183922D557DD8B1B4B8A16F
:1005B000D09180F270F370F27C80A8F101B098873E
:1005C000D943D886C988BAA1F20EB89780F1A9DFBD
:1005D000DFDFAADFDFDFF2AAC5CDC7A90CC92C97E0
:1005E000979797F1A989264666B0B4BA80ACDEF237
:1005F000CAF1B28C02A9B69800890E161EB8A9B429
:10060000992C547CB08AA896365676F1B9AFB4B01E
:1006100083C0B8A89711B18F98B9AFF024084410DF
:100620006418F1A329557DAF83B593AFF00028502E
:10063000F1A3869F61A6DADEDFD9FAA38696DB31C5
:10064000A6D9F8DFBAA68FC2C5C7B28CC1B8A2DFDF
:10065000DFDFA3DFDFDFD8D8F1B8A8B286B4980D0A
:10066000355DB8AA98B0872D353DB2B6BAAF8C9635
:10067000198F9FA70E161EB49AB8AA872C547CB95E
:10068000A3DEDFDFA3B180F2C4CDC9F1B8A9B4996C
:10069000830D355D89B9A32D557DB593A30E161E27
:1006A000A92C547CB8B4B0F19783A81184A50998FB
:1006B000A383F0DA240844106418D8F1A529557DE5
:1006C000A58595021A2E3A565A4048F9F3A3D9F84F
:1006D000F098832408441064189782A8F111F098C8
:1006E000A2240844106418DAF3DED883A59401D953
:1006F000A302F1A2C3C5C7D8F18492A24DDA2AD8C9
:100700004869D92AD86855DA32D85071D932D870A8
:100710005DDA3AD85879D93AD87893A34DDA2AD8FD
:100720004869D92AD86855DA32D85071D932D87088
:100730005DDA3AD85879D93AD878A88A9AF0285008
:10074000789EF38818F19F1D98A8D908D8C89F12E1
:100750009EF315A8DA1210D8F1AFC8978734B5B94F
:1007600094A421F3D922D8F22DF3D92AD8F235F363
:10077000D932D881A4606061D961D86C6869D969BF
:10078000D8747071D971D8B1A384193D5DA3831A4F
:100790003E5E931030811011B8B0AF8F94F2DA3E04
:1007A000D8B49AA88729DAF8D8879A35DAF8D8879A
:1007B0009A3DDAF8D8B1B9A49885022E56A58100E1
:1007C0000C14A397B08AF12DD928D84DD948D86DEB
:1007D000D968D8B1840DDA0ED8A32983DA2C0ED8C3
:1007E000A3844983DA2C4C0ED8B8B0A88A9AF52095
:1007F000AADADFD8A840AAD0DADED8A860AADAD070
:10080000DFD8F19786A8319B069907AB9728889B7C
:10081000F00C201440B8B0B4A88C9CF00428517996
:100820001D301438B282ABD0982C505078789BF1A0
:100830001AB0F08A9CA82951798B2951798A2470A1
:10084000598B2058718A4469388B3940688A6448CA
:10085000318B304960A5882009715844681139648A
:10086000493019F1AC002C547CF08CA80428507845
:10087000F1889726A85998AC8C02264666F0899C88
:10088000A8295179247059446938644831A98809E4
:10089000205970AB11384069A8193148608CA83CC8
:1008A000415C207C00F187981986A86E767EA99914
:1008B000882D557D9EB9A38A228A6E8A568A5E9FAC
:1008C000B183062646660E2E4E6E9DB8AD002C54A2
:1008D0007CF2B18CB499B9A32D557D8191AC38AD22
:1008E0003AB58391AC2DD928D84DD948D86DD9685F
:1008F000D88C9DAE29D904AED851D904AED879D9B7
:1009000004D881F39DAD008DAE1981ADD901D8F227
:10091000AEDA26D88E912983A7D9ADADADADF32A35
:10092000D8D8F1B0AC89913E5E76F3AC2E2EF1B101
:100930008C5A9CAC2C2828289CAC3018A89881286C
:10094000343C9724A728343C9C24F2B089AC912CE9
:100950004C6C8A9B2DD9D8D851D9D8D879D9D8D828
:10096000F19E88A331DAD8D8912DD928D84DD9480D
:10097000D86DD968D8B18393353D8025DAD8D8852C
:1009800069DAD8D8B49381A328343CF3AB8BF8A3AD
:1009900091B609B4D9ABDEFAB0879CB9A3DDF1A357
:1009A000A3A3A395F1A3A3A39DF1A3A3A3A3F2A340
:1009B000B49080F2A3A3A3A3A3A3A3A3A3A3B2A3CE
:1009C000A3A3A3A3A3B087B599F1A3A3A398F1A36D
:1009D000A3A3A397A3A3A3A3F39BA3A3DCB9A7F10A
:1009E000262626D8D8FF2900444D5020496E697428
:1009F00069616C697A6174696F6E206661696C65A2
:100A0000642028636F64652000444D502072656146
:100A10006479212057616974696E6720666F72205E
:100A2000666972737420696E746572727570742E63
:100A30002E2E00456E61626C696E6720696E74656A
:100A4000727275707420646574656374696F6E206A
:100A50002841726475696E6F2065787465726E6185
:100A60006C20696E746572727570742030292E2E38
:100A70002E00456E61626C696E6720444D502E2ECB
:100A80002E004D50553630353020636F6E6E6563E5
:100A900074696F6E206661696C6564004D505536EF
:100AA00030353020636F6E6E656374696F6E2073CE
:100AB00075636365737366756C00496E697469610B
:100AC0006C697A696E6720444D502E2E2E00546555
:100AD0007374696E672064657669636520636F6E01
:100AE0006E656374696F6E732E2E2E00496E697485
:100AF00069616C697A696E67204932432064657662
:100B0000696365732E2E2E0000002100240027004B
:100B10002A002D003000330001010000040107010C
:100B20000A0100002200250028002B002E003100C1
:100B3000340002010000050108010B010000200043
:100B40002300260029002C002F00320000010000A5
:100B50000301060109010505050507050808080840
:100B6000020202020A0A0808040404040101010145
:100B70000101010103030303030303030407070740
:100B80000C0C0C0C0C0C0C0C0202020206060606E5
:100B9000060606060B0B0B0B0B0B0B0B01021020B2
:100BA00020080810204010204080020102010804A3
:100BB0000201010204081020408080402010080437
:100BC0000201800402018040201008040201080490
:100BD00002010102040810204080010204081020D4
:100BE000408000000A0B02090C0D0E0807030401E7
:100BF00000000000000000000000000000000000F5
:100C000000000000000000000000000000001211C1
:100C100010000000000000000000000000000000C4
:100C200000000000000000002C002C002C002C0014
:100C30002C002C002C002C002C002C002C002C0054
:100C40002C000A002C002C002C008091A502882387
:100C500009F10FB6F8940F92E0913E03F0913F0333
:100C6000C681D781CE0102960E94882A80914C03CA
:100C7000815080934C038091A50281508093A502FE
:100C80000F900FBE8F89988D0E94CC2DCE010E94AF
:100C9000CC2DDBCF80915203823010F00E944A2B82
:100CA0000E94DA1DF6D6D1CFA32F9E2F11241FBE8E
:100CB000CFEFD1E2DEBFCDBF00E00CBF26E0AAE758
:100CC000B2E001C01D92A63BB207E1F712E0A0E03E
:100CD000B2E0E2E5F1E700E00BBF02C007900D9241
:100CE000AA37B107D9F716E0C5E5D6E000E006C09F
:100CF00021970109802FFE010E945736C435D10784
:100D000080E00807A9F70E9436270C94983878C924
:100D10002F923F924F925F926F927F928F929F920B
:100D2000AF92BF92CF92DF92EF92FF920F931F93F9
:100D3000CF93DF93CDB7DEB7C259D1090FB6F89480
:100D4000DEBF0FBECDBF64E670E08CE695E00E948A
:100D5000610F1092C2021092C30210929F03109270
:100D6000C10310929D0381E080939C03109277034E
:100D700061E084E1E6D661E085E1E3D68091B900E7
:100D80008E7F8093B9008091B9008D7F8093B900E8
:100D900088E48093B80085E48093BC0088E1809368
:100DA000B8000E940B0F6093DD057093DE05809301
:100DB000DF059093E00561E087E0F2D661E086E030
:100DC000EFD661E084E0ECD661E085E0E9D662E050
:100DD00088E0E6D662E089E0E3D661E08DE0E0D627
:100DE00084E190E00E94851C6093D4057093D50542
:100DF0008093D6059093D70588E190E00E94851CEA
:100E00006093D0057093D1058093D2059093D3055C
:100E10008CE190E00E94851C6093CC057093CD0519
:100E20008093CE059093CF05C090D405D090D50582
:100E3000E090D605F090D705C0923C05D0923D05D4
:100E4000E0923E05F0923F05C090D005D090D105CC
:100E5000E090D205F090D305C0924005D0924105B4
:100E6000E0924205F0924305609344057093450576
:100E7000809346059093470580E290E00E94851C90
:100E80006093C8057093C9058093CA059093CB05FC
:100E900084E290E00E94851C6093C4057093C505B0
:100EA0008093C6059093C70588E290E00E94851C58
:100EB0006093C0057093C1058093C2059093C305EC
:100EC000C090C805D090C905E090CA05F090CB0548
:100ED000C0925405D0925505E0925605F092570500
:100EE000C090C405D090C505E090C605F090C70538
:100EF000C0925805D0925905E0925A05F0925B05D0
:100F000060935C0570935D0580935E0590935F052B
:100F10008FE594E00E940F1982EC93E00E940F1974
:100F20008CEE9AE00E94AB1A01E023E042E06BE60F
:100F300080918A050E94BE1400E022E044E06BE14B
:100F400080918A050E94BE1422E044E06CE1809109
:100F50008A050E94BE1420E046E06BE680918A0577
:100F60000E9407158EEC9AE00E94AB1A28EE33E03F
:100F70004BE855E065E780918A050E948A1A8091C6
:100F80008B05843319F082E89AE002C08CE99AE07C
:100F90000E94AB1A8AEB9AE00E94AB1A21E047E06C
:100FA0006BE680918A050E9407156EE170E080E093
:100FB00090E0F9D620E046E06BE680918A050E9439
:100FC000071540E76DE680918A050E94AF1386E021
:100FD0000E94A71908EE13E02BE835E041E06FE628
:100FE00080918A050E94BE1340E06DE680918A05DB
:100FF0000E94AF139E012F5F3F4F41E060E0809160
:101000008A050E94BE138981817080938B0528EE2A
:1010100033E04BE855E060E080918A050E948A1A2F
:1010200070908B0528EE33E04BE855E061E080914D
:101030008A050E948A1A80908B0528EE33E04BE8DF
:1010400055E062E080918A050E948A1A90908B0593
:101050004FE765E280918A050E94AF1320E045E0EA
:101060006AE680918A050E94071548E665E280914C
:101070008A050E94AF1321E041E06AE680918A056B
:101080000E94071564E170E080E090E08CD601E0FA
:1010900020E040E069E877E08DE592E00E94AC193D
:1010A000882309F4C9C288E090E00E945F365C01A1
:1010B00000E010E0F801E356FE4F4491F801E256DB
:1010C000FE4F2491680183E0C80ED11CF801E1565F
:1010D000FE4FE491EE23B9F1EE2EF12CE330C8F08F
:1010E000B701C501CE56DF4F2883C259D040CF5635
:1010F000DF4F4883C159D0400E948C375C01CF56E6
:10110000DF4F4881C159D040CE56DF4F2881C259A8
:10111000D040D50180E090E08E159F0548F4F6019F
:10112000E80FF91FE356FE4FE491ED930196F4CFDB
:1011300000E0B701C5010E94AC1987010C0D1D1D0F
:10114000811115C00FC00C5F1F4FF601E356FE4F13
:10115000E491E13039F442E368E380918A050E942A
:10116000AF1305C0C5010E94F43612E066C2003C10
:10117000110508F49FCFC5010E94F43603E023E077
:1011800042E06BE680918A050E94BE1442E168E36A
:1011900080918A050E94AF1344E069E180918A053D
:1011A0000E94AF1301E023E045E06AE180918A05E7
:1011B0000E94BE1403E023E042E06AE180918A05C8
:1011C0000E94BE1422E044E06BE180918A050E94F7
:1011D000BE1443E060E780918A050E94AF1340E0AF
:1011E00061E780918A050E94AF1320E040E060E053
:1011F00080918A050E940715072D26E046E060E0F1
:1012000080918A050E94BE14082D26E046E061E028
:1012100080918A050E94BE14092D26E046E062E016
:1012200080918A050E94BE14E12CF12CF701E2594D
:10123000FE4FE491A1E8B0E0AC0FBD1FAE0DB11DB3
:10124000EC9381E08E0D9FEFE91AF90A93E09E1569
:1012500068F7CD57DF4F6881C358D04070E09B01DD
:101260002E5F3F4F90E02817390704F700E0CE5774
:10127000DF4F2881C258D040CF57DF4F4881C15837
:10128000D04081E890E08C0F9D1F03960E94AC191E
:1012900080E0F701E259FE4FE491A1E8B0E0AC0F25
:1012A000BD1FA80FB11DEC938F5F9FEFE91AF90ADC
:1012B000843078F3CD57DF4F6881C358D04070E059
:1012C000AB014E5F5F4F282F30E0421753070CF7FA
:1012D00000E0CE57DF4F2881C258D040CF57DF4FB4
:1012E0004881C158D04081E890E08C0F9D1F039643
:1012F0000E94AC190E94A6300E94711A682FCE017C
:1013000001960E94641A42E06FE180918A050E9472
:10131000AF134CE961E280918A050E94AF1340E56A
:1013200060E280918A050E94AF1340E062E2809102
:101330008A050E94AF130E94A63021E046E06AE6CB
:1013400080918A050E94071521E047E06AE68091B6
:101350008A050E94071521E043E06AE680918A052C
:101360000E94071580E0F701E259FE4FE491A1E8E1
:10137000B0E0AC0FBD1FA80FB11DEC938F5F9FEFC6
:10138000E91AF90A843078F3CD57DF4F6881C358E2
:10139000D04070E0AB014E5F5F4F282F30E0421726
:1013A00053070CF700E0CE57DF4F2881C258D040DA
:1013B000CF57DF4F4881C158D04081E890E08C0F73
:1013C0009D1F03960E94AC1980E0F701E259FE4F81
:1013D000E491A1E8B0E0AC0FBD1FA80FB11DEC93E4
:1013E0008F5F9FEFE91AF90A843078F3CD57DF4F0A
:1013F0006881C358D04070E0AB014E5F5F4F282F2B
:1014000030E0421753070CF700E0CE57DF4F28813A
:10141000C258D040CF57DF4F4881C158D04081E8F3
:1014200090E08C0F9D1F03960E94AC1980E0F7019D
:10143000E259FE4FE491A1E8B0E0AC0FBD1FA80F48
:10144000B11DEC938F5F9FEFE91AF90A843078F3AE
:10145000CD57DF4F6881C358D04070E0AB014E5F7D
:101460005F4F282F30E0421753070CF700E0CE57AC
:10147000DF4F2881C258D040CF57DF4F4881C15835
:10148000D04081E890E08C0F9D1F03960E94AC191C
:101490000E94711A83309105D8F3682FCE0101960E
:1014A0000E94641A0E94931980E0F701E259FE4FEE
:1014B000E491A1E8B0E0AC0FBD1FA80FB11DEC9303
:1014C0008F5F9FEFE91AF90A843078F3CD57DF4F29
:1014D0003880C358D040832C912CA4014E5F5F4FBD
:1014E000282F30E04217530704F7CE57DF4FB8805C
:1014F000C258D040CF57DF4F2880C158D040422D2E
:101500004F716DE680918A050E94AF138B2D0E946A
:10151000A719C12CD12C612C7724739421E8422E79
:10152000512C4C0E5D1E83E0480E511CC814D9048A
:1015300098F5C60140968816990618F4A32CAC18A5
:1015400002C080E1A82E8A2D90E093012B19310969
:101550002817390714F4AB2CA19492012C0D3D1DD2
:1015600008EE13E04A2D6FE680918A050E94BE13B3
:10157000CA0CD11CBA0CC814D904C0F6B11001C0F1
:101580002394422D4F716DE680918A050E94AF131E
:101590008B2D0E94A719CACF0E94711A8330910522
:1015A000D8F3682FCE0101960E94641A0E94931905
:1015B000F701E259FE4F80E09491A1E8B0E0AC0F52
:1015C000BD1FA80FB11D9C938F5F843010F431961E
:1015D000F3CFCD57DF4F6881C358D04070E0AB01E7
:1015E0004E5F5F4F282F30E04217530784F700E02B
:1015F000CE57DF4F2881C258D040CF57DF4F4881A8
:10160000C158D04081E890E08C0F9D1F03960E9446
:10161000AC1920E047E06AE680918A050E94071530
:101620008AE290E090938D0580938C050E94A6300D
:101630000E94931910E001C011E010937A0242E673
:1016400059EE66E080918A050E94861341E353E0DB
:1016500068E080918A050E9486134AE056E06AE0BD
:1016600080918A050E9486134AEB5FEF63E18091C7
:101670008A050E94861341E95FEF65E180918A0542
:101680000E9486134AE150E067E180918A050E943A
:10169000861311113BC082E79AE00E94AB1A21E049
:1016A00047E06AE680918A050E94071583E39AE085
:1016B0000E94AB1A83EC9BE190931B0280931A0269
:1016C0008091BE0282608093BE0283B18093C0028B
:1016D00080916B00826080936B00809168008160D4
:1016E000809368000E9493198093D80589E09AE05E
:1016F0000E94AB1A81E08093DC0580918C0590916B
:101700008D059093DA058093D90512C068EE79E0D3
:101710008FE594E086D540917A0250E060E070E079
:101720002AE08FE594E0B6D586EE99E00E94AB1AE8
:10173000CE56DF4F0FB6F894DEBF0FBECDBFDF91A0
:10174000CF911F910F91FF90EF90DF90CF90BF90BE
:10175000AF909F908F907F906F905F904F903F9051
:101760002F90089590E0FC013197E231F10508F0E7
:101770004EC08827EE58FF4F8F4F0C9457368091FC
:1017800080008F7703C0809180008F7D80938000E0
:10179000089580918000877FF9CF84B58F7702C04C
:1017A00084B58F7D84BD08958091B0008F7703C08C
:1017B0008091B0008F7D8093B0000895809190005B
:1017C0008F7707C0809190008F7D03C0809190003B
:1017D000877F8093900008958091A0008F7707C045
:1017E0008091A0008F7D03C08091A000877F8093AF
:1017F000A0000895809120018F7707C0809120017B
:101800008F7D03C080912001877F80932001089500
:101810003FB7F89480919F029091A002A091A102FD
:10182000B091A20226B5A89B05C02F3F19F00196E2
:10183000A11DB11D3FBFBA2FA92F982F8827820F56
:10184000911DA11DB11DBC01CD0142E0660F771FA6
:10185000881F991F4A95D1F708950895CF92DF9276
:10186000EF92FF920F931F93CF93DF936C017A0156
:101870008B01C0E0D0E0CE15DF0589F0D8016D9175
:101880008D01D601ED91FC910190F081E02DC60112
:101890001995892B11F47E0102C02196ECCFC70166
:1018A000DF91CF911F910F91FF90EF90DF90CF903C
:1018B0000895FC01A089B1898C91A689B78982FD20
:1018C0000FC09C91818D8F5F8F73228D821749F09D
:1018D000218DDF01A20FB11D5D969C93818F08952C
:1018E0008C910895FC01538D448D252F30E0842F79
:1018F00090E0821B930B541710F0CF960895019738
:101900000895FC01918D828D981761F0828DDF0121
:10191000A80FB11D5D968C91928D9F5F9F73928FE2
:1019200090E008958FEF9FEF0895FC01918D828DD7
:10193000981731F0828DE80FF11D858D90E00895A4
:101940008FEF9FEF0895FC01918D228D892F90E0FC
:10195000805C9F4F821B91098F739927089582ECB9
:1019600093E0F1DF21E0892B09F420E0822F089534
:101970008FE594E0E8DF21E0892B09F420E0822F55
:101980000895FC01848DDF01A80FB11DA35ABF4F3C
:101990002C91848D90E001968F739927848FA6896E
:1019A000B7892C93A089B1898C9180648C93938D95
:1019B000848D981306C00288F389E02D80818F7D85
:1019C00080830895EF92FF920F931F93CF93DF933D
:1019D000EC0181E0888F9B8D8C8D981305C0E88980
:1019E000F989808185FD23C0F62E0B8D10E00F5FF5
:1019F0001F4F0F731127E02E8C8DE8120BC00FB60E
:101A000007FCFACFE889F989808185FFF5CFCE01FF
:101A1000B8DFF2CF8B8DFE01E80FF11DE35AFF4FC7
:101A2000F0820B8FEA89FB898081806207C0EE8992
:101A3000FF896083E889F98980818064808381E0FF
:101A400090E0DF91CF911F910F91FF90EF9008955B
:101A5000CF93DF93EC01888D8823C1F0EA89FB895D
:101A6000808185FD05C0A889B9898C9186FD0EC04D
:101A70000FB607FCF5CF808185FFF2CFA889B98921
:101A80008C9185FFEDCFCE017CDFE8CFDF91CF9148
:101A9000089580E090E0892B19F06ADF81111CC065
:101AA00080E090E0892B41F080E090E0892B21F0EC
:101AB0000E940000811113C052DF811113C080E029
:101AC00090E0892B99F080E090E0892B79F00E94DA
:101AD0000000811109C008950E940000E1CF0E941A
:101AE0000000EACF9ED5EBCF0C94000008950E9431
:101AF0007038CF93DF93282F30E0F901EE51F44F87
:101B00008491F901E456F44FD491F901EA5AF44F63
:101B1000C491CC2389F0811125DEEC2FF0E0EE0F8B
:101B2000FF1FE45CF44FA591B491EC91ED2381E0AB
:101B300090E021F480E002C080E090E0DF91CF915E
:101B400008951F93CF93DF93282F30E0F901EE51D2
:101B5000F44F8491F901E456F44FD491F901EA5A13
:101B6000F44FC491CC23C1F0162F8111FBDDEC2F73
:101B7000F0E0EE0FFF1FEE5DF44FA591B4918FB72B
:101B8000F894111105C09C91ED2FE095E92302C056
:101B9000EC91ED2BEC938FBFDF91CF911F910895C6
:101BA000CF93DF9390E0FC01E456F44F2491FC01C5
:101BB000EA5AF44F8491882361F190E0880F991FCD
:101BC000FC01E85FF44FC591D491FC01EE5DF44F48
:101BD000A591B491611109C09FB7F89488812095AF
:101BE00082238883EC912E230BC0623061F49FB76F
:101BF000F8943881822F809583238883EC912E2B53
:101C00002C939FBF06C08FB7F894E8812E2B2883B2
:101C10008FBFDF91CF9108951F93CF93DF93182F3C
:101C2000EB0161E0BDDF209711F460E004C0CF3F1D
:101C3000D10531F461E0812FDF91CF911F9181CFE8
:101C4000E12FF0E0EE51F44FE4914E2F50E0FA0115
:101C50003197E231F10508F09DC08827EC57FF4F1E
:101C60008F4F0C94573684B5806884BDC7BD97C02C
:101C700084B5806284BDC8BD92C0809180008068B8
:101C800080938000D0938900C093880088C08091A1
:101C90008000806280938000D0938B00C0938A0084
:101CA0007EC080918000886080938000D0938D00FA
:101CB000C0938C0074C08091B00080688093B000A5
:101CC000C093B3006CC08091B00080628093B0007C
:101CD000C093B40064C080919000806880939000AD
:101CE000D0939900C09398005AC080919000806270
:101CF00080939000D0939B00C0939A0050C0809135
:101D00009000886080939000D0939D00C0939C00C9
:101D100046C08091A00080688093A0008091A000C0
:101D20008F7B8093A000D093A900C093A80037C0F8
:101D30008091A00080628093A000D093AB00C093FC
:101D4000AA002DC08091A00088608093A000D0934D
:101D5000AD00C093AC0023C08091200180688093C7
:101D60002001D0932901C093280119C0809120013E
:101D7000806280932001D0932B01C0932A010FC071
:101D800080912001886080932001D0932D01C09321
:101D90002C0105C0C038D1050CF04CCF46CFDF91E7
:101DA000CF911F9108958F929F92AF92BF92CF9241
:101DB000DF92EF92FF926B017C012ADD4B015C0107
:101DC000C114D104E104F104E9F022DDDC01CB010E
:101DD00088199909AA09BB09883E9340A105B10554
:101DE00078F321E0C21AD108E108F10888EE880EE4
:101DF00083E0981EA11CB11CC114D104E104F104BC
:101E000021F7DECFFF90EF90DF90CF90BF90AF90A3
:101E10009F908F9008952FB7F89460919B027091D6
:101E20009C0280919D0290919E022FBF08951F9267
:101E30000F920FB60F9211242F933F938F939F937E
:101E4000AF93BF9380919B0290919C02A0919D02C1
:101E5000B0919E0230919A0223E0230F2D3720F497
:101E60000196A11DB11D05C026E8230F0296A11DF4
:101E7000B11D20939A0280939B0290939C02A093A1
:101E80009D02B0939E0280919F029091A002A0912A
:101E9000A102B091A2020196A11DB11D80939F02E3
:101EA0009093A002A093A102B093A202BF91AF9120
:101EB0009F918F913F912F910F900FBE0F901F9088
:101EC00018950F931F93CF93DF93EC01888199812D
:101ED000009729F02A813B812617370788F48B0168
:101EE0006F5F7F4F0E948C37009761F099838883E2
:101EF0001B830A832C813D81232B11F4FC0110826A
:101F000081E001C080E0DF91CF911F910F91089592
:101F1000EF92FF920F931F93CF93DF93EC017B011E
:101F20008A01BA01CEDF2881398181110DC02115C6
:101F3000310519F0C9010E94F436198218821D82F8
:101F40001C821B821A8206C01D830C83B701C90143
:101F50000E949138CE01DF91CF911F910F91FF9098
:101F6000EF9008951F920F920FB60F9211240BB6A7
:101F70000F922F933F934F935F936F937F938F9322
:101F80009F93AF93BF93EF93FF93E0910E02F09175
:101F90000F021995FF91EF91BF91AF919F918F9192
:101FA0007F916F915F914F913F912F910F900BBE59
:101FB0000F900FBE0F901F9018951F920F920FB6A3
:101FC0000F9211240BB60F922F933F934F935F9371
:101FD0006F937F938F939F93AF93BF93EF93FF93F1
:101FE000E0910C02F0910D021995FF91EF91BF91D4
:101FF000AF919F918F917F916F915F914F913F91A1
:102000002F910F900BBE0F900FBE0F901F90189541
:102010001F920F920FB60F9211240BB60F922F93AF
:102020003F934F935F936F937F938F939F93AF9360
:10203000BF93EF93FF93E0910202F0910302199591
:10204000FF91EF91BF91AF919F918F917F916F9190
:102050005F914F913F912F910F900BBE0F900FBE4C
:102060000F901F9018951F920F920FB60F92112488
:102070000BB60F922F933F934F935F936F937F9382
:102080008F939F93AF93BF93EF93FF93E0910002E1
:10209000F09101021995FF91EF91BF91AF919F913E
:1020A0008F917F916F915F914F913F912F910F9001
:1020B0000BBE0F900FBE0F901F9018951F920F929E
:1020C0000FB60F9211240BB60F922F933F934F939D
:1020D0005F936F937F938F939F93AF93BF93EF9390
:1020E000FF93E0910A02F0910B021995FF91EF9195
:1020F000BF91AF919F918F917F916F915F914F9120
:102100003F912F910F900BBE0F900FBE0F901F901D
:1021100018951F920F920FB60F9211240BB60F92C3
:102120002F933F934F935F936F937F938F939F93DF
:10213000AF93BF93EF93FF93E0910802F0910902F0
:102140001995FF91EF91BF91AF919F918F917F91E1
:102150006F915F914F913F912F910F900BBE0F9018
:102160000FBE0F901F9018951F920F920FB60F92EF
:1021700011240BB60F922F933F934F935F936F935E
:102180007F938F939F93AF93BF93EF93FF93E091D0
:102190000602F09107021995FF91EF91BF91AF915F
:1021A0009F918F917F916F915F914F913F912F916F
:1021B0000F900BBE0F900FBE0F901F9018951F929F
:1021C0000F920FB60F9211240BB60F922F933F93DD
:1021D0004F935F936F937F938F939F93AF93BF932F
:1021E000EF93FF93E0910402F09105021995FF919E
:1021F000EF91BF91AF919F918F917F916F915F917F
:102200004F913F912F910F900BBE0F900FBE0F90EB
:102210001F901895DC01ED91FC910190F081E02D6B
:102220001994EF92FF920F931F93CF93DF938C013A
:102230007B01C0E0D0E0F701EC0FFD1F6491662345
:1022400061F0D801ED91FC910190F081E02DC80181
:102250001995892B11F02196EECFCE01DF91CF9108
:102260001F910F91FF90EF9008956115710579F01E
:10227000FB0101900020E9F73197AF01461B570B96
:10228000DC01ED91FC910280F381E02D199480E056
:1022900090E008954F925F926F927F92EF92FF923B
:1022A0000F931F93CF93DF93CDB7DEB7A1970FB6F0
:1022B000F894DEBF0FBECDBF7C01FA01CB0119A29D
:1022C000223008F42AE08E010F5D1F4F422E512C60
:1022D000612C712CBF01A30192010E943536F901D6
:1022E000CA01015011096A3014F4605D01C0695CD3
:1022F000D8016C93232B242B252B61F7B801C70140
:10230000B4DFA1960FB6F894DEBF0FBECDBFDF914C
:10231000CF911F910F91FF90EF907F906F905F9002
:102320004F9008951F920F920FB60F9211240BB683
:102330000F922F933F934F935F936F937F938F935E
:102340009F93AF93BF93EF93FF9382EC93E019DBDE
:10235000FF91EF91BF91AF919F918F917F916F917D
:102360005F914F913F912F910F900BBE0F900FBE39
:102370000F901F9018951F920F920FB60F92112475
:102380000BB60F922F933F934F935F936F937F936F
:102390008F939F93AF93BF93EF93FF9382EC93E060
:1023A00088DAFF91EF91BF91AF919F918F917F91CB
:1023B0006F915F914F913F912F910F900BBE0F90B6
:1023C0000FBE0F901F9018951F920F920FB60F928D
:1023D00011240BB60F922F933F934F935F936F93FC
:1023E0007F938F939F93AF93BF93EF93FF938FE56B
:1023F00094E0C7DAFF91EF91BF91AF919F918F91D8
:102400007F916F915F914F913F912F910F900BBEF4
:102410000F900FBE0F901F9018951F920F920FB63E
:102420000F9211240BB60F922F933F934F935F930C
:102430006F937F938F939F93AF93BF93EF93FF938C
:102440008FE594E036DAFF91EF91BF91AF919F91C4
:102450008F917F916F915F914F913F912F910F904D
:102460000BBE0F900FBE0F901F901895E0912E039A
:10247000F0912F038081811103C08FEF9FEF0CC07B
:10248000E0912E03F0912F030580F681E02D068068
:10249000F781E02D828193819093800280937F0267
:1024A00008958091C30290E02091C202821B91099D
:1024B000089508950895E091C2028091C302E8173B
:1024C00030F4F0E0E45FFC4F808190E008958FEFFE
:1024D0009FEF08959091C2028091C302981750F423
:1024E000E92FF0E0E45FFC4F208130E09F5F9093A4
:1024F000C20202C02FEF3FEFC9010895089580E0A6
:1025000090E0089585ED8093BC008091BC0084FD2F
:10251000FCCF10929D0308954091E702262F30E0F2
:10252000240F311D21323105DCF420919D0324302C
:10253000C9F4FC0180E090E0861758F43091E7027E
:102540002191DC01AB53BD4FA30FB11D2C9301961C
:10255000F3CF8091E702680F6093E70280E008956F
:1025600081E0089582E00895CF92DF92EF92FF928A
:102570000F931F93CF93DF937C01262F972F8A0110
:1025800080919E03882391F0C62FD72F6E01C40E31
:10259000D51ECC15DD0569F06991D701ED91FC914F
:1025A0000190F081E02DC7011995F3CF642F822FA0
:1025B000B3DFC801DF91CF911F910F91FF90EF9092
:1025C000DF90CF900895CF93DF931F92CDB7DEB702
:1025D000698320919E032223D1F02091C1032032F0
:1025E00040F021E030E0FC013383228380E090E082
:1025F00014C080919F03E82FF0E0E056FC4F9981D2
:1026000090838F5F80939F038093C10304C061E038
:10261000CE01019681DF81E090E00F90DF91CF91B4
:102620000895CF93DF93D1E082EC93E08CD9892B8E
:1026300099F182EC93E065D9C82F4091BD02E42F57
:10264000F0E0E755FD4F808350E060E070E02AE065
:102650008FE594E01FDE4C2F50E060E070E020E159
:102660008FE594E017DE6BE672E08FE594E0FDDD28
:102670008091BD028F5F8093BD028091C402882348
:1026800031F0CA3011F4D093A8021092C402CD30B8
:1026900059F6D093C402C8CFDF91CF910895EF923D
:1026A000FF920F931F93CF93DF931F921F92CDB78B
:1026B000DEB7142F91E090939E038093C003109295
:1026C0009F031092C1038CEF94E029833A837BDF50
:1026D0002981022FE22E3A81F32E8E2D801B811745
:1026E00038F4F70161917F018CEF94E06CDFF5CF56
:1026F000BDD591E0811190E0892F0F900F90DF916F
:10270000CF911F910F91FF90EF9008951F93CF935A
:10271000DF931F921F92CDB7DEB75A83498391E0B2
:1027200090939E038093C00310929F031092C10365
:102730008CEF94E048DF19816A818CEF94E043DFED
:10274000612F8CEF94E03FDF91D591E0811190E013
:10275000892F0F900F90DF91CF911F910895CF9304
:10276000DF931F92CDB7DEB749839E012F5F3F4FA6
:1027700041E095DF0F90DF91CF9108952F923F9226
:102780004F925F926F927F928F929F92AF92BF9281
:10279000CF92DF92EF92FF920F931F93CF93DF932D
:1027A000CDB7DEB727970FB6F894DEBF0FBECDBF0B
:1027B000E82E6B834F8369012EDB4B015C016E2C8D
:1027C000660CF12C1E82772473945F81452F50E0B4
:1027D0005D834C831801412C512C4F81F41608F075
:1027E00095C070929E03E092C00310929F031092D6
:1027F000C1036B818CEF94E0E6DE38D570929E03C6
:10280000E092C00310929F031092C10380919D0338
:102810008111FCCF2C813D812F19310921323105E5
:1028200014F020E230E0213208F020E270929D03A3
:1028300070929C038FEF80939B0310929A03820FF8
:10284000809399037092780380917803862980930E
:10285000780380917703813071F41092770380912F
:1028600078038093BB008091BC0083FDF8CF95EC8A
:102870009093BC0003C0E5EEE093BC0080919D0303
:102880008130E1F380919A03821710F420919A032A
:10289000A9E7B3E0ECE0F3E08E2F4CE053E0841BBB
:1028A000821718F48D918193F7CF1092C202209372
:1028B000C3029091C3028091C202981709F10115D9
:1028C000110591F4A6012E81420F511D27FD5A9545
:1028D0005A8349838CEF94E0FDDDE981FA8180839E
:1028E0002E812F5F2E83E5CF96DADC01CB0188198C
:1028F0009909AA09BB0982159305A405B50510F32A
:102900008F81813208F080E2F80E67CFFE800115DA
:102910001105D1F080DADC01CB0188199909AA09E7
:10292000BB0920E030E080179107A207B30760F0F1
:102930005F81252F30E08F2D0F2C000C990B821713
:10294000930714F4FF24FA948F2D27960FB6F8946A
:10295000DEBF0FBECDBFDF91CF911F910F91FF90D2
:10296000EF90DF90CF90BF90AF909F908F907F902F
:102970006F905F904F903F902F900895BF92CF92AD
:10298000DF92EF92FF920F931F93CF93DF931F92EB
:10299000CDB7DEB7F82EE62EC42EB22ED02E08EE1E
:1029A00013E09E012F5F3F4F41E0E8DE882319F1DD
:1029B000EC2DF0E0EB19F109319621E030E002C096
:1029C000220F331FBA94E2F7215031090E2E01C0B5
:1029D000220F0A94EAF78D2D01C0880FEA95EAF7D5
:1029E000422F4095998149232823422B49836E2DFC
:1029F0008F2DB5DE01C080E00F90DF91CF911F9148
:102A00000F91FF90EF90DF90CF90BF900895CF92FD
:102A1000DF92EF92FF920F931F93CF93DF931F925A
:102A2000CDB7DEB7F82EE62ED42EC22E08EE13E078
:102A30009E012F5F3F4F41E0A1DE9981CC2041F004
:102A400041E050E001C0440FDA94EAF7492B09C095
:102A500021E030E0A90101C0440FDA94EAF7409583
:102A6000492349836E2D8F2D7ADE0F90DF91CF9110
:102A70001F910F91FF90EF90DF90CF9008951F92DC
:102A80000F920FB60F9211240BB60F922F933F9314
:102A90004F935F936F937F938F939F93AF93BF9366
:102AA000CF93EF93FF9390910601C091BF02C9238A
:102AB0008091C1028927C8239093C102C0FF05C03D
:102AC000E0912002F09121021995C1FF05C0E0912B
:102AD0002202F09123021995C2FF05C0E091240261
:102AE000F09125021995C3FF05C0E0912602F091EF
:102AF00027021995C4FF05C0E0912802F091290230
:102B00001995C5FF05C0E0912A02F0912B02199595
:102B1000C6FF05C0E0912C02F0912D021995C7FF68
:102B200005C0E0912E02F0912F021995FF91EF91CF
:102B3000CF91BF91AF919F918F917F916F915F9155
:102B40004F913F912F910F900BBE0F900FBE0F90A2
:102B50001F9018951F920F920FB60F9211240BB66B
:102B60000F922F933F934F935F936F937F938F9326
:102B70009F93AF93BF93CF93EF93FF9393B1C09184
:102B8000BE02C9238091C0028927C8239093C00246
:102B9000C4FF05C0E0911002F09111021995C5FF24
:102BA00005C0E0911202F09113021995C6FF05C00D
:102BB000E0911402F09115021995C7FF05C0E0914C
:102BC0001602F09117021995C0FF05C0E091180296
:102BD000F09119021995C1FF05C0E0911A02F09118
:102BE0001B021995C2FF05C0E0911C02F0911D0265
:102BF0001995C3FF05C0E0911E02F0911F021995BF
:102C0000FF91EF91CF91BF91AF919F918F917F9164
:102C10006F915F914F913F912F910F900BBE0F904D
:102C20000FBE0F901F9018951F920F920FB60F9224
:102C300011240BB60F922F933F934F935F936F9393
:102C40007F938F939F93AF93BF93EF93FF93809165
:102C5000B900887F803609F49CC068F5883209F491
:102C60005BC090F4803109F454C038F4882309F42F
:102C7000F6C0883009F44DC0F5C0883109F44CC065
:102C8000803209F45DC0EEC0803409F468C048F4B5
:102C9000803309F455C0883309F0E4C080939B0366
:102CA000D8C0803509F44FC0883509F45DC0883438
:102CB00009F0D8C0D6C0883909F4C7C0A8F488374D
:102CC00009F467C038F4883609F463C0803709F422
:102CD00060C0C8C0883809F4B8C0803909F45FC042
:102CE000803809F0BFC05BC0803B09F486C038F46F
:102CF000803A09F466C0883A09F47FC0B3C0803CCA
:102D000009F4A7C0883C09F4A4C0883B09F48AC030
:102D1000A9C08091780310C090919A038091990383
:102D2000981770F5E0919A0381E08E0F80939A03D3
:102D3000F0E0E758FC4F80818093BB0085EC86C0B3
:102D400080939B038EC0E0919A0381E08E0F809365
:102D50009A038091BB00F0E0E758FC4F808390918C
:102D60009A03809199036EC0E0919A0381E08E0FDF
:102D700080939A038091BB00F0E0E758FC4F80837A
:102D800080919C0381116DC081E08093770384EA78
:102D900061C083E080939D0310920B03CFCF80919D
:102DA0000B03803208F051C0E0910B0381E08E0FDD
:102DB00080930B038091BB00F0E0E551FD4F8083D1
:102DC000BDCF85EC8093BC0010929D0380910B03D6
:102DD000803230F4E0910B03F0E0E551FD4F1082BA
:102DE00060910B0370E0E091E902F091EA028BEE52
:102DF00092E0199510920B0335C084E080939D03F7
:102E00001092E8021092E702E091E502F091E602EA
:102E100019958091E702811105C081E08093E70256
:102E20001092C502E091E80281E08E0F8093E802E3
:102E3000F0E0EB53FD4F80818093BB009091E8025E
:102E40008091E702981708F479CF85E88093BC0059
:102E500009C085EC8093BC0010929D0303C01092C2
:102E60009B0350DBFF91EF91BF91AF919F918F91A9
:102E70007F916F915F914F913F912F910F900BBE7A
:102E80000F900FBE0F901F9018952F923F924F9268
:102E90005F926F927F928F929F92AF92BF92CF92EA
:102EA000DF92EF92FF920F931F93CF93DF93CDB7F3
:102EB000DEB72A970FB6F894DEBF0FBECDBF9A8754
:102EC0008987CB01BA01A90198010E944C346B019A
:102ED0007C01E985FA8520813181428153810E94FC
:102EE000693369837A838B839C83E985FA8520899A
:102EF000318942895389C701B6010E944D34162F8A
:102F0000072F382E292EE985FA8544845584668456
:102F1000778453014201B7FAB094B7F8B094A50191
:102F200094010E94043387FD11C0A3019201612F17
:102F3000702F832D922D0E94CC3518164CF0812FC6
:102F4000902FA32DB22D2C013D0102C0240135018B
:102F5000E985FA85408A518A628A738A248135819B
:102F600046815781C301B2010E9469334B015C0164
:102F7000E985FA852489358946895789C701B601CB
:102F80000E944C34E985FA85208531854285538538
:102F90000E9469332B013C01E985FA85C48AD58AF0
:102FA000E68AF78AA501940169817A818B819C81E7
:102FB0000E944D34A30192010E944D342A960FB60F
:102FC000F894DEBF0FBECDBFDF91CF911F910F915F
:102FD000FF90EF90DF90CF90BF90AF909F908F9039
:102FE0007F906F905F904F903F902F9008958F92B9
:102FF0009F92AF92BF92CF92DF92EF92FF924B01DE
:103000005C0169017A0120E030E0A9010E94CC3521
:10301000181614F460E00AC020E030E0A901C501F0
:10302000B4010E94043387FF04C061E084E00E9481
:10303000A10D20E030E0A901C701B6010E94CC3506
:1030400018166CF460E085E00E94A10D20E030E0ED
:1030500040E850E4C701B6010E944D3415C020E09D
:1030600030E0A901C701B6010E94043387FF0EC0FA
:1030700061E085E00E94A10D20E030E040E850E4EE
:10308000C701B6010E944C346B017C0120E030E0A6
:103090004FE753ECC501B4010E94043387FD51C0D2
:1030A00020E030E04FE753E4C501B4010E94CC3585
:1030B00020E030E04FE753EC181674F1C701B60179
:1030C0000E94043387FD11C020E030E04FE753E455
:1030D000C701B6010E94CC351816A4F4C12CD12C1E
:1030E000EFE7EE2EE3E4FE2E0DC0C12CD12CFFE75E
:1030F000EF2EF3ECFF2E06C0812C912C9FE7A92E1A
:1031000093E4B92E20E030E0A901C501B4010E948A
:10311000CC3518169CF027C0C701B6010E940433B5
:1031200087FF4BC0C12CD12C6FE7E62E63ECF62E47
:10313000812C912C7FE7A72E73E4B72EC501B40133
:1031400015C020E030E04FE753ECC701B6010E9404
:10315000043387FF46C0C12CD12C4FE7E42E43EC4B
:10316000F42E46015701C501B40190580E947B35E9
:10317000B62E20E030E0A901C701B6010E94CC358F
:1031800018161CF4C701B60103C0C701B601905858
:103190000E947B35F62E6B2D70E087E00E940C0EAE
:1031A0006F2D70E086E0FF90EF90DF90CF90BF90A2
:1031B000AF909F908F900C940C0E20E030E04FE782
:1031C00053E4C701B6010E94CC3518160CF094CF19
:1031D000C12CD12C5FE7E52E53E4F52E46015701B3
:1031E000ADCF20E030E04FE753E4C701B6010E94C5
:1031F000CC3518166CF4C12CD12C2FE7E22E23E429
:10320000F22E812C912C3FE7A32E33ECB32EABCFC3
:10321000812C912C8FE7A82E83ECB82E73CFFC0164
:10322000A089B18982E08C93A485B5851C92A6857E
:10323000B78580E18C93108EA489B58986E08C9344
:10324000A289B3898C9180618C93A289B3898C9176
:1032500088608C93A289B3898C9180688C93028852
:10326000F389E02D80818F7D808308952091C103B3
:103270009091C003213208F04AC080919D038111D2
:10328000FCCF32E030939D0331E030939C033FEF5D
:1032900030939B0310929A0320939903A0EAB3E022
:1032A00049E753E0FA013E2F341B321718F43D91E1
:1032B0003193F9CF1092780320917803990F922BD4
:1032C0009093780390917703913061F41092770393
:1032D000909178039093BB009091BC0093FDF8CF40
:1032E00095EC01C095EE9093BC0090919D039230B7
:1032F000E1F390919B039F3F79F080919B03803293
:1033000041F080919B03803331F084E005C081E07F
:1033100003C082E001C083E010929F031092C103BA
:1033200010929E0308950F931F93CF93DF93CAE8E3
:10333000D5E008EE13E02BE835E041E06AE3888150
:103340001DDA8981DF91CF911F910F910895482F48
:103350006EE680918A0503CA2F923F924F925F9248
:103360006F927F928F929F92AF92BF92CF92DF9295
:10337000EF92FF920F931F93CF93DF933C015B017A
:10338000342EC22F202E4F716DE680918A05E7D929
:103390008C2FDDDF80E190E00E945F366C0100231E
:1033A00031F080E190E00E945F36582E492EE12CEA
:1033B000F12CEA14FB0408F067C0C7014096A81678
:1033C000B90618F4DA2DDE1901C0D0E18D2F90E096
:1033D00020E031E02C1B31092817390714F4DC2FC9
:1033E000D195F301EE0DFF1D222059F0952DA52D4D
:1033F000B42D8A2F891B8D1730F484918D933196CB
:10340000F8CF5E2E4F2E252D342D4D2F6FE6809157
:103410008A0545D98D2E912CC114D10411F1432D6B
:103420004F716DE680918A059AD98C2F90DF08EE56
:1034300013E096014D2F6FE680918A059FD9A40174
:10344000B601852D942D0E947438892B51F0C60148
:103450000E94F436222011F1852D942D0E94F4361D
:103460001DC0E80CF91CCD0FEA14FB0408F0A1CF35
:10347000C11101C03394432D4F716DE680918A05CF
:103480006ED98C2F64DF95CFC6010E94F4362220BE
:1034900039F0852D942D0E94F43602C080E001C0E1
:1034A00081E0DF91CF911F910F91FF90EF90DF901E
:1034B000CF90BF90AF909F908F907F906F905F90D4
:1034C0004F903F902F9008950F931F93462F08EE33
:1034D00013E09C0164E780918A0550D91F910F91F8
:1034E00008950F931F93CF93DF93CAE8D5E008EEBA
:1034F00013E02BE835E042E062E788813FD989811B
:1035000090E0982F88272A81822BDF91CF911F91FD
:103510000F910895EF92FF920F931F93CF93DF9334
:103520001F92CDB7DEB77A0189019E012F5F3F4F11
:1035300041E024D9882339F029812E7730E0359570
:103540002795F70120830F90DF91CF911F910F9165
:10355000FF90EF900895CF93DF93BC018FE594E047
:103560000E941111EC016BE672E08FE594E00E947D
:1035700035118C0F9D1FDF91CF910895CF92DF926F
:10358000EF92FF92CF93DF936C01990FEE08FF0843
:10359000F7FE1BC06DE282EC93E00E940A11EC0181
:1035A00044275527BA014C195D096E097F092AE0A5
:1035B00082EC93E00E944A118C0F9D1FDF91CF9106
:1035C000FF90EF90DF90CF9008952AE0B701A60119
:1035D00082EC93E0DF91CF91FF90EF90DF90CF905E
:1035E0000C944A118F929F92AF92BF92CF92DF922A
:1035F000EF92FF92CF93DF936B017C019B01AC01B3
:103600000E941C36882319F06EE672E027C046013E
:103610005701E894B7F82FEF3FEF4FE75FE7C50199
:10362000B4010E941C3681110DC02FEF3FEF4FE710
:103630005FE7C501B4010E94043318161CF462E769
:1036400072E00CC02FEF3FEF4FE75FE4C701B60118
:103650000E94CC35181684F466E772E082EC93E0A1
:10366000DF91CF91FF90EF90DF90CF90BF90AF9020
:103670009F908F900C9435112FEF3FEF4FE75FEC49
:10368000C701B6010E94043387FDE6CF20E030E099
:10369000A901C701B6010E94043387FF0BC06DE288
:1036A00082EC93E00E940A11EC01F7FAF094F7F82B
:1036B000F09402C0C0E0D0E02AE037ED43EA5BE3DB
:1036C000C701B6010E944D344B015C010E947B355D
:1036D0006B017C010E9408339B01AC01C501B40160
:1036E0000E944C344B015C012AE0B701A60182EC38
:1036F00093E00E944A11C80FD91F6EE282EC93E05A
:103700000E940A11C80FD91F20E030E040E251E4C6
:10371000C501B4010E9469334B015C010E947B35F5
:103720006B01E12CF12C2AE0B701A60182EC93E0B9
:103730000E944A11C80FD91FC701B6010E94083361
:103740009B01AC01C501B4010E944C3420E030E083
:1037500040E251E40E9469330E947B35AB0160E096
:1037600070E02AE082EC93E00E944A118C0F9D1FCA
:10377000DF91CF91FF90EF90DF90CF90BF90AF900F
:103780009F908F90089581E08093DB0508958231AA
:1037900009F466C0B8F4823069F1833009F073C06F
:1037A0007093B3056093B20583E79DE190930302A4
:1037B0008093020280916A00837F846080936A0014
:1037C000ED9A5FC0843141F1C8F1853109F05BC0E9
:1037D0007093B5056093B4058EE69DE19093050264
:1037E00080930402809169008C7F816080936900DE
:1037F000E89A47C07093B1056093B00588E79DE1F2
:10380000909301028093000280916A008C7F816016
:1038100080936A00EC9A35C07093B7056093B60543
:1038200089E69DE1909307028093060280916900EA
:10383000837F846080936900E99A23C07093B905FF
:103840006093B80584E69DE1909309028093080295
:10385000809169008F7C806180936900EA9A11C031
:103860007093BB056093BA058FE59DE190930B02C1
:1038700080930A02809169008F738064809369004D
:10388000EB9A81E0089580E00895CF92DF92EF9265
:10389000FF921F93CF93DF9300D01F92CDB7DEB777
:1038A00069837A838B839C837E0185E0E80EF11C1B
:1038B000FE0131966F01F70182917F01682F6295B9
:1038C0006F708F706A3010F4605D01C0695C8A307F
:1038D00010F410E301C017E3180F82EC93E00E948C
:1038E0000A11612F82EC93E00E940A11EC14FD048E
:1038F00011F70F900F900F900F90DF91CF911F91C4
:10390000FF90EF90DF90CF900895FF920F931F9359
:10391000CF93DF93EC010E941D34F82E8093BC05F9
:10392000CE0101960E941D34082F8093BD05CE0163
:1039300002960E941D34182F8093BE05CE01039677
:103940000E941D348093BF059FEFF9120EC00F3FF8
:1039500061F41F3F51F48F3F41F41092BC05109267
:10396000BD051092BE051092BF056091BC05709117
:10397000BD058091BE059091BF05DF91CF911F914C
:103980000F91FF900895EF92FF920F931F93CF93A3
:10399000DF931F92CDB7DEB77C01CA01DB018093B4
:1039A000BC059093BD05A093BE05B093BF05C701AC
:1039B00049830E941D346981681719F0C7010E946C
:1039C00025346091BD0587010F5F1F4FC8016983D2
:1039D0000E941D346981681719F0C8010E942534BE
:1039E0006091BE0587010E5F1F4FC80169830E9469
:1039F0001D346981681719F0C8010E94253460914F
:103A0000BF0587010D5F1F4FC80169830E941D34E8
:103A10006981681751F0C8010F90DF91CF911F9114
:103A20000F91FF90EF900C9425340F90DF91CF9180
:103A30001F910F91FF90EF900895DC01ED91FD91A2
:103A40008081ED91FD919081ED91FD916C9163707C
:103A50008E2309F064609F2309F06860EAE3FDE1CA
:103A6000E60FF11D659565956D936D917D918D9135
:103A70009D91099423C01AC012C016C010C01EC068
:103A800009C014C013C006C019C009C00DC007C0CA
:103A90000DC014C062507040804090400BC0615017
:103AA00070408040904006C06E5F01C06F5F7F4FE6
:103AB0008F4F9F4F9E938E937E936E930895809128
:103AC000BA059091BB05B9CF8091B8059091B90521
:103AD000B4CF8091B6059091B705AFCF8091B40572
:103AE0009091B505AACF8091B2059091B305A5CF6D
:103AF0008091B0059091B105A0CF0F931F93CF9304
:103B0000DF93EC01062F142F62E0802F0E94D00D6E
:103B100062E0812F0E94D00D802F90E0FC01EA5AD4
:103B2000F44FE491F0E0EE0FFF1FE45CF44FA59139
:103B3000B491B983A883FC01E456F44F84918C833B
:103B4000212F30E0F901EA5AF44F9491E92FF0E087
:103B5000EE0FFF1FE45CF44F459154915B834A8361
:103B6000F901E456F44FE491ED831F82188619861B
:103B70001A86EBE3FFE13197F1F7EC91E82381E05E
:103B800009F480E0FA0120819D81922309F082608E
:103B90008E83BE01802FFBDD8B87BE01812FF7DD79
:103BA0002B8590E0820F911D8B87DF91CF911F9124
:103BB0000F9108954F925F926F927F928F929F9292
:103BC000AF92BF92CF92DF92EF92FF920F931F932B
:103BD000CF93DF93CDB7DEB768970FB6F894DEBF0B
:103BE0000FBECDBF8091E505833061F180F4813057
:103BF000F1F0823009F049C04091E1055091E205B1
:103C00006091E3057091E40588E190E03BC0853068
:103C100079F118F18630C9F54091E1055091E2053E
:103C20006091E3057091E40588E290E02BC040913B
:103C3000E1055091E2056091E3057091E40584E1AE
:103C400090E020C04091E1055091E2056091E305CC
:103C50007091E4058CE190E015C04091E105509130
:103C6000E2056091E3057091E40580E290E00AC00E
:103C70004091E1055091E2056091E3057091E40502
:103C800084E290E080DE1092E5058091A80288230E
:103C900009F4AAC140E050E06DE672E08CE695E0E0
:103CA0000E94880F1092A802E091BD02E350E093B9
:103CB000BD02F0E0E755FD4F60818FE594E00E9482
:103CC0000A116BE672E08FE594E00E943511E091F5
:103CD000BD02E43008F4D1C08091AC028093E405C9
:103CE0008091AB028093E3058091AA028093E20564
:103CF0008091A9028093E1056BE672E08FE594E084
:103D00000E943511E091BD02F0E0E755FD4F808142
:103D10008137E1F48091E1059091E205A091E305FE
:103D2000B091E4058093D4059093D505A093D60572
:103D3000B093D70521E02093E50580933C0590934F
:103D40003D05A0933E05B0933F054CC18737E1F494
:103D50008091E1059091E205A091E305B091E40521
:103D60008093D0059093D105A093D205B093D3054D
:103D700022E02093E5058093400590934105A093B0
:103D80004205B09343052EC18536E1F48091E105EB
:103D90009091E205A091E305B091E4058093CC05F4
:103DA0009093CD05A093CE05B093CF0523E020934B
:103DB000E5058093440590934505A0934605B0938F
:103DC000470510C18136E1F48091E1059091E2054B
:103DD000A091E305B091E4058093C8059093C905CF
:103DE000A093CA05B093CB0524E02093E50580930A
:103DF000540590935505A0935605B0935705F2C00E
:103E00008337E1F48091E1059091E205A091E3050B
:103E1000B091E4058093C4059093C505A093C605B1
:103E2000B093C70525E02093E5058093580590934E
:103E30005905A0935A05B0935B05D4C0843609F0A8
:103E4000D1C08091E1059091E205A091E305B09188
:103E5000E4058093C0059093C105A093C205B0937B
:103E6000C30526E02093E50580935C0590935D05EE
:103E7000A0935E05B0935F05B5C0F0E0E755FD4F38
:103E800080818F36D9F420E030E0A901CA01B90160
:103E9000AED81092B0061092AF0610924C06109257
:103EA0004D0610924E0610924F0610929F061092E9
:103EB000A0061092A1061092A20694C0803759F471
:103EC0008091AF06882319F081E08093B00681E0ED
:103ED0008093AF0687C08A3709F064C06091D4052B
:103EE0007091D5058091D6059091D705CEDC62E31F
:103EF0007CE082EC93E00E9411116091D0057091FA
:103F0000D1058091D2059091D305BFDC60E37CE0C0
:103F100082EC93E00E9411116091CC057091CD0567
:103F20008091CE059091CF05B0DC6EE27CE082EC12
:103F300093E00E9411116091C8057091C9058091AC
:103F4000CA059091CB05A1DC6CE27CE082EC93E0A9
:103F50000E9411116091C4057091C5058091C6053C
:103F60009091C70592DC6AE27CE082EC93E00E94CB
:103F700011116091C0057091C1058091C2059091A9
:103F8000C30583DC68E27CE082EC93E00E941111BF
:103F90008091AF0690E0F2DA6AE082EC93E00E9452
:103FA0000A1120C0863429F480E090E0A0EFB1E44B
:103FB00011C0883449F410924C0610924D061092AC
:103FC0004E0610924F060EC0873461F480E090E0F8
:103FD000A0EFB1EC80934C0690934D06A0934E0653
:103FE000B0934F061092BD0288E00E94790D892B94
:103FF00061F48091B106882321F081E08093B006BE
:104000000FC081E08093AF060BC089E00E94790D5C
:10401000892B31F41092AF061092B0061092B106BF
:104020000E940B0F6093AB067093AC068093AD06B5
:104030009093AE060091A7061091A8062091A906BC
:104040003091AA06DC01CB01801B910BA20BB30BB4
:1040500086399105A105B10508F447C06091A30612
:104060007091A4068091A5069091A606BBDA68E43B
:104070007CE082EC93E00E94111160919F067091A8
:10408000A0068091A1069091A206ACDA66E47CE0DD
:1040900082EC93E00E94111160919B0670919C0646
:1040A00080919D0690919E069DDA64E47CE082EC0E
:1040B00093E00E9411118091AF0690E05FDA62E414
:1040C0007CE082EC93E00E9411118091AB0690910C
:1040D000AC06A091AD06B091AE068093A706909372
:1040E000A806A093A906B093AA068091AF068823DC
:1040F00019F084E690E002C08CEB92E090933102DC
:1041000080933002C090AB06D090AC06E090AD0634
:10411000F090AE068091DD059091DE05A091DF055F
:10412000B091E005B701A601481B590B6A0B7B0B48
:104130008091300290913102A0E0B0E04817590719
:104140006A077B0798F010919A06612F8DE00E9414
:10415000A10D81E0612F682760939A06C092DD056A
:10416000D092DE05E092DF05F092E0050E940B0F91
:10417000609396067093970680939806909399069D
:104180000091920610919306209194063091950625
:10419000DC01CB01801B910BA20BB30B4997A1054E
:1041A000B10508F418C180918905823028F4F8948B
:1041B0008EE795E042DC01C0F894809185059091EE
:1041C0008605A0918705B0918805789480938E0626
:1041D00090938F06A0939006B093910680917D05F1
:1041E000823028F4F89482E795E027DC01C0F89447
:1041F0008091790590917A05A0917B05B0917C051D
:1042000089839A83AB83BC83789480938A06909346
:104210008B06A0938C06B0938D0680918E069091AC
:104220008F06A0919006B09191068D839E83AF83F7
:10423000B8878091860690918706A0918806B091F4
:1042400089062D813E814F815885281B390B4A0BE9
:104250005B0BA4ECB9E00E9433340E940A334B019B
:104260005C0160938206709383068093840690932A
:10427000850680917E0690917F06A0918006B09180
:10428000810629813A814B815C81281B390B4A0BBD
:104290005B0BA4ECB9E00E9433340E940A336987B7
:1042A0007A878B879C8760937A0670937B068093CE
:1042B0007C0690937D0640909606509097066090FD
:1042C0009806709099068091920690919306A0911D
:1042D0009406B09195068D879E87AF87B88BA30112
:1042E0009201281B390B4A0B5B0BA3E1B0E00E9443
:1042F00033340E9408336B017C016093760670931F
:10430000770680937806909379069B01AC01C501EE
:10431000B4010E9413354B015C01609372067093E7
:1043200073068093740690937506A70196016985BC
:104330007A858B859C850E9413359B01AC01609327
:104340006E0670936F068093700690937106C50198
:10435000B4010E944D3460936A0670936B0680939B
:104360006C0690936D068D819E81AF81B885809398
:10437000860690938706A0938806B0938906898164
:104380009A81AB81BC8180937E0690937F06A09337
:104390008006B0938106C301B2010E9408336B010D
:1043A0007C016D857E858F8598890E9408339B01ED
:1043B000AC01C701B6010E944C340E947B3570935A
:1043C0006906609368064092920650929306609246
:1043D0009406709295068091DC05882309F493C4B5
:1043E0008091DB0581110CC020913E0630913F0683
:1043F0008091D9059091DA052817390708F483C40C
:104400001092DB050E949319F82E8093D80508EED0
:1044100013E02BE835E04EE06BE380918A050E94C3
:10442000BE1380918B0590E0982F882720918C05F2
:10443000822B90933D0680933C0680918D0590E001
:10444000982F882720918E05822B90933B0680938E
:104450003A0680918F0590E0982F8827209190054B
:10446000822B90933906809338062091930530E093
:10447000322F222780919405282B309337062093E2
:1044800036062091950530E0322F2227809196053F
:10449000282B30933506209334062091970530E081
:1044A000322F222780919805282B309333062093B2
:1044B000320617D890933F0680933E06F4FC23C43F
:1044C0008115944009F41FC4F1FE1DC4E0903E061E
:1044D000F0903F06C090D905D090DA05EC14FD04A9
:1044E00038F40E94711A90933F0680933E06EECFF7
:1044F0006C2D82EF95E00E94641AEC18FD08F09292
:104500003F06E0923E066090F605712C762C6624FC
:104510008091F705680E711CC090FA05D12CDC2C37
:10452000CC248091FB05C80ED11CE090FE05F12C37
:10453000FE2CEE248091FF05E80EF11C6091F2053F
:1045400070E0762F66278091F305680F711D072EA6
:10455000000C880B990B0E940A3320E030E040E801
:1045600058E30E9469334B015C016093140570931A
:1045700015058093160590931705B301770C880BEA
:10458000990B0E940A3320E030E040E858E30E9493
:1045900069332B013C0160931805709319058093D2
:1045A0001A0590931B05B601DD0C880B990B0E9430
:1045B0000A3320E030E040E858E30E946933698321
:1045C0007A838B839C8360931C0570931D05809375
:1045D0001E0590931F05B701FF0C880B990B0E94D5
:1045E0000A3320E030E040E858E30E9469336D83ED
:1045F0007E838F8398876093200570932105809335
:104600002205909323059B01AC01C301B2010E94D6
:1046100069336B017C0129813A814B815C81C50141
:10462000B4010E9469339B01AC01C701B6010E942D
:104630004C349B01AC010E944D3469877A878B878B
:104640009C87609308057093090580930A059093F1
:104650000B05A3019201C501B4010E9469336B01EE
:104660007C012D813E814F81588569817A818B81C2
:104670009C810E9469339B01AC01C701B6010E9475
:104680004D349B01AC010E944D346D877E878F872E
:10469000988B60930C0570930D0580930E05909395
:1046A0000F05A5019401C501B4010E9469336B0196
:1046B0007C01A3019201C301B2010E9469339B01F5
:1046C000AC01C701B6010E944C346B017C01298109
:1046D0003A814B815C81CA01B9010E9469339B0117
:1046E000AC01C701B6010E944C346B017C012D81E5
:1046F0003E814F815885CA01B9010E9469339B01EF
:10470000AC01C701B6010E944D346B017C0160937E
:104710001005709311058093120590931305A50160
:104720009401C501B4010E944D34698B7A8B8B8B47
:104730009C8BA3019201C301B2010E944D346D8B89
:104740007E8B8F8B988FA501940169897A898B89DB
:104750009C890E9469334B015C01A30192016D8920
:104760007E898F89988D0E9469339B01AC01C501B8
:10477000B4010E944D3420E030E040E85FE30E9445
:104780004C344B015C0129813A814B815C816D89FC
:104790007E898F89988D0E9469332B013C012D8180
:1047A0003E814F81588569897A898B899C890E94CD
:1047B00069339B01AC01C301B2010E944C34A501D5
:1047C00094010E94C0346093E6057093E7058093DE
:1047D000E8059093E905A7019601C701B6010E947B
:1047E00069334B015C012D853E854F855889CA018F
:1047F000B9010E946933A50194010E944D340E94C1
:10480000DB359B01AC0169857A858B859C850E948F
:1048100013350E94EB346B017C016093EA057093C1
:10482000EB058093EC059093ED0529853A854B8542
:104830005C85CA01B9010E946933A50194010E94F7
:104840004D340E94DB359B01AC016D857E858F85E3
:1048500098890E9413350E94EB346093EE057093A3
:10486000EF058093F0059093F10520E030E044E3FC
:1048700053E4C701B6010E9469332BED3FE049E4E0
:1048800050E40E9413356093A3067093A4068093AE
:10489000A5069093A6060E940B0FAB01BC012AE06F
:1048A00082EC93E00E944A1160E47CE082EC93E0A9
:1048B0000E94111160915406709155068091560620
:1048C000909157060E94F21A6EE37CE082EC93E02E
:1048D0000E94111160919F067091A0068091A1061F
:1048E0009091A2060E94F21A6CE37CE082EC93E0C5
:1048F0000E94111123EE37EC48EC5EE360919B06B9
:1049000070919C0680919D0690919E060E9469334D
:104910000E94F21A6AE37CE082EC93E00E9411119B
:104920006091440670914506809146069091470635
:104930000E94F21A68E37CE082EC93E00E9411117D
:104940006091400670914106809142069091430625
:104950000E94F21A66E37CE082EC93E00E9411115F
:1049600020916E0630916F0640917006509171064D
:10497000609172067091730680917406909175062D
:104980000E944C3420E030E040E05FE30E94693355
:104990000E94F21A64E37CE082EC93E00E94111121
:1049A000609148067091490680914A0690914B06A5
:1049B0000E94F21A6AE082EC93E00E940A11609170
:1049C0005C0670915D0680915E0690915F06609333
:1049D00058067093590680935A0690935B0620916F
:1049E0006006309161064091620650916306209303
:1049F0005C0630935D0640935E0650935F068090A0
:104A0000640690906506A0906606B0906706809256
:104A1000600690926106A0926206B0926306C09012
:104A2000A306D090A406E090A506F090A606C0923A
:104A30006406D0926506E0926606F09267060E94D0
:104A40004D34A50194010E944D34A70196010E94A6
:104A50004D3420E030E040E85EE30E9469334B01D2
:104A60005C016093540670935506809356069093AC
:104A7000570620E030E0A9010E94CC3518165CF4FE
:104A800020E030E048EC51E4C501B4010E94CC358F
:104A900087FF0BC010C020E030E048EC51ECC501AE
:104AA000B4010E940433181634F01092AF0610922D
:104AB000B0061092B1068091AF06882309F4BEC0FB
:104AC00020916E0630916F064091700650917106EC
:104AD00060917206709173068091740690917506CC
:104AE0000E944C34905820E030E040E05FE30E94A8
:104AF00069338B019C01609350067093510680933B
:104B000052069093530640914C0650914D06609189
:104B10004E0670914F0640934806509349066093A5
:104B20004A0670934B068091B006882371F0705846
:104B300084E595E00E94451760939F067093A00658
:104B40008093A1069093A20608C010929F0610922F
:104B5000A0061092A1061092A206C0909F06D090C7
:104B6000A006E090A106F090A20620E030E040EF21
:104B700051ECC701B6010E94043387FD11C020E04B
:104B800030E040EF51E4C701B6010E94CC35181661
:104B90006CF4C12CD12CE0EFEE2EE1E4FE2E06C029
:104BA000C12CD12CF0EFEF2EF1ECFF2EC0929F061E
:104BB000D092A006E092A106F092A206950184018F
:104BC000B701A6018CE395E00E9445176B017C01BB
:104BD00060939B0670939C0680939D0690939E061F
:104BE00020E030E0A9010E944D344B015C0160934C
:104BF0004406709345068093460690934706A701A6
:104C0000960160E070E0CB010E944C349B01AC0146
:104C1000609340067093410680934206909343064A
:104C2000C501B4010E94F71788E00E94790D019731
:104C300009F069C081E08093B10665C01092440616
:104C400010924506109246061092470610924006B2
:104C500010924106109242061092430610929F064F
:104C60001092A0061092A1061092A20610924C0675
:104C700010924D0610924E0610924F0610924C055F
:104C800010924D0510924E0510924F05109250054E
:104C9000109251051092520510925305109264051E
:104CA00010926505109266051092670510926805CE
:104CB0001092690510926A0510926B0510929B067E
:104CC00010929C0610929D0610929E0620E030E005
:104CD000A901CA01B90168960FB6F894DEBF0FBEEC
:104CE000CDBFDF91CF911F910F91FF90EF90DF909B
:104CF000CF90BF90AF909F908F907F906F905F907C
:104D00004F900C94F71768960FB6F894DEBF0FBE5D
:104D1000CDBFDF91CF911F910F91FF90EF90DF906A
:104D2000CF90BF90AF909F908F907F906F905F904B
:104D30004F900895CF93DF9300D01F921F92CDB76D
:104D4000DEB79C018091820290918302009761F00E
:104D500019827B836A833D832C8320914B0322231A
:104D600029F02091810202C080E005C0BE016F5F82
:104D70007F4F0E94AD300F900F900F900F900F90CB
:104D8000DF91CF910895EF92FF920F931F93CF93EE
:104D9000DF93E0917D02F0917E028081882351F1C2
:104DA0000580F681E02D00811181C681D7817E01C9
:104DB00082E0E80EF11CC701ABD3E989FA89CE0184
:104DC00019958E85813029F72C853D85200F311F5F
:104DD0000217130758F43B832A83D987C887B70182
:104DE00080917D0290917E022ED6D3CFB801CE0164
:104DF000A1DFCFCF80917B0290917C0290937E02C5
:104E000080937D02F0937C02E0937B02DF91CF914F
:104E10001F910F91FF90EF900895FC0173836283BF
:104E2000918780874617570778F0421B530B84857C
:104E3000958548175907C0F4BF016E5F7F4F809179
:104E40007B0290917C020DC04217530718F4621741
:104E5000730750F4BF016E5F7F4F80917D02909188
:104E60007E02F1D580E0089581E00895789484B5BC
:104E7000826084BD84B5816084BD85B5826085BD56
:104E800085B5816085BD80916E00816080936E00E4
:104E900010928100809181008260809381008091D6
:104EA0008100816080938100809180008160809387
:104EB00080008091B10084608093B1008091B00047
:104EC00081608093B0008091910082608093910016
:104ED0008091910081608093910080919000816029
:104EE000809390008091A10082608093A1008091C6
:104EF000A10081608093A1008091A00081608093D7
:104F0000A000809121018260809321018091210184
:104F10008160809321018091200181608093200134
:104F200080917A00846080937A0080917A00826018
:104F300080937A0080917A00816080937A008091DA
:104F40007A00806880937A001092C1000E948806DF
:104F500008E912E020E040EC50E06EE572E085E206
:104F600096E00E949B31813009F0AEC00FB6F894F4
:104F70000F928091820290918302892B09F046C0A2
:104F80008DE892E0FBD584E892E0F8D58DE892E0D8
:104F900090937E0280937D0284E892E090937C025D
:104FA00080937B0281E590E0A1D7EC01009751F15D
:104FB0004F96998388838AE08B8F85E08C8F0FB61C
:104FC000F8940F92288139819B8D4C8D949FC0015C
:104FD0001124B901680F791F7B836A831A8E3D8380
:104FE0002C83841B9109820F931F9F838E838FEFE5
:104FF0008D8F8E8FCE010896C1D5CE014196BED53C
:105000000F900FBED0938302C09382020F900FBE09
:105010008091820290918302892B09F455C006E9A0
:1050200012E023E045E550E063E672E08BED9DE29F
:105030000E949B31813009F047C0F8942FEF3FEF79
:105040003093800220937F0280934B031092500391
:1050500010924F03A89590EC88E10FB6F894A895AC
:10506000809360000FBE90936000A0914D03B091BB
:105070004E03CD91CDBFDD91DEBFFF91EF91DF916A
:10508000CF91BF91AF919F918F917F916F915F91E0
:105090004F913F912F911F910F91FF90EF90DF90D3
:1050A000CF90BF90AF909F908F907F906F905F90C8
:1050B0004F903F902F901F900F900CBE0F900BBE03
:1050C0000F900FBE0F9008950E9488060E94DA1D6F
:1050D0000E94490DFBCF0FB6F8940F9280914F03B9
:1050E000909150030F900FBE08950FB6F8940F9251
:1050F000FC01928D0F900FBE81E0911180E0089528
:105100000F920FB6F8940F920BB60F920CB60F9247
:105110001F9211242F923F924F925F926F927F9233
:105120008F929F92AF92BF92CF92DF92EF92FF92B7
:105130000F931F932F933F934F935F936F937F939F
:105140008F939F93AF93BF93CF93DF93EF93FF938F
:10515000A0914D03B0914E030DB60D920EB60D9277
:1051600013BE809181028111F3C080914F03909111
:10517000500301969093500380934F03009799F545
:1051800020912E0330912F0340912C0350912D0339
:1051900050932F0340932E0330932D0320932C0321
:1051A000209151032F5F20935103E0912E03F09142
:1051B0002F032081211107C02FEF3FEF3093800292
:1051C00020937F0210C0E0912E03F0912F03058001
:1051D000F681E02D0680F781E02D22813381309326
:1051E000800220937F0220917F02309180028217FB
:1051F000930710F420E09CC020E019E0E0912E031A
:10520000F0912F033081311107C08FEF9FEF909302
:10521000800280937F028CC0E0912E03F0912F03D7
:105220000580F681E02D0680F781E02D42815381D3
:105230008417950728F45093800240937F0278C02A
:10524000AF014E5F5F4FA285B38564817581E680B3
:10525000F780EB01FD82EC82C681D7817B836A8374
:1052600011966D917C9112976417750721F412962F
:10527000DC93CE931197138612863C9131503C9368
:105280003C91A489B5891097F9F066857785E08807
:10529000F188EB01FD82EC82C089D1897B836A832E
:1052A0001196ED90FC901297BF01645F7F4FE61658
:1052B000F70621F41296DC93CE931197158A148A7F
:1052C0003C9131503C933C91A689309176033A173A
:1052D00010F4A09376031A9FD0011124BD016E5AD9
:1052E0007C4F7B01DB011196CD91DC911297D58328
:1052F000C4836C817D81778366836C817D81DB01D2
:1053000013965C934E9312975D834C83F386E286EB
:10531000E70138813F5F3883A0914D03B0914E0380
:10532000468956963C91431708F468CF21E066CF32
:10533000E0914D03F0914E03E689D9E0ED9FF00135
:105340001124EE5AFC4F8081823040F021E006C0EB
:105350008091A3028F5F8093A30220E08091A4023A
:10536000811103C0222309F466C080918102882341
:1053700021F081E08093A4025EC01092A402A0916B
:105380004D03B0914E03E0914D03F0914E032D91EA
:105390003C918789908D82179307A8F080914D03E7
:1053A00090914E0380914D0390914E03279A2F9A2E
:1053B0002FEF67EA71E6215060407040E1F700C0CE
:1053C00000001F9AF5CF8091760369E001C08150FB
:1053D000482F50E0649F9001659F300D1124F90122
:1053E000EE5AFC4F9081992391F3A181B2811296DC
:1053F0000D90BC91A02DB283A1832B5A3C4FA217D4
:10540000B30731F412962D913C9113973283218387
:1054100099E0949FF001959FF00D1124EE5AFC4FF6
:105420000180F281E02D2681378130934E03209355
:105430004D0380937603A0914D03B0914E03CD911F
:10544000CDBFDD91DEBFFF91EF91DF91CF91BF9195
:10545000AF919F918F917F916F915F914F913F910C
:105460002F911F910F91FF90EF90DF90CF90BF9001
:10547000AF909F908F907F906F905F904F903F90F4
:105480002F901F900F900CBE0F900BBE0F900FBE71
:105490000F900895FC01DB010FB6F8940F92409134
:1054A0004F0350915003818192812D913C9111972E
:1054B0002F3F6FEF3607F1F070915103608176173F
:1054C00019F048175907C0F4481B590B42175307E6
:1054D00070F4241B350B2D933C93809151038083F2
:1054E00080914F03909150039283818303C01D925A
:1054F0001C9202C080E001C081E00F900FBE0895B1
:10550000809181028F5F809381020895F9DD189563
:10551000CF93DF93FC01A085B185828193812481A3
:105520003581EC013D832C83C481D5819B838A83A3
:1055300011968D919C9112978E179F0721F41296C8
:10554000DC93CE931197118610868C9181508C93A9
:105550008C91DF91CF910895CF93DF939C01FB0154
:10556000DC011196CD91DC911297D383C2838C819B
:105570009D81958384838C819D81DC0113967C932E
:105580006E9312977D836C8331872087F901808128
:105590008F5F8083DF91CF9108950F931F93CF93F7
:1055A000DF93DC011596ED91FC911697C681D781AA
:1055B0008E01045F1F4FC801ABDF80918102811112
:1055C00013C00A501109C801A3DF9E898091760398
:1055D000891710F490937603B9E09B9FC0011124C2
:1055E000B8018E5A9C4F03C0B80182E493E0B4DF47
:1055F000E0914D03F0914E039E898689891720F42E
:1056000081E08093A40201C080E0DF91CF911F91DF
:105610000F910895EF92FF920F931F93CF93DF9313
:10562000EC010FB6F8940F921E8D7C0181E1E80E1B
:10563000F11C01E0111654F48989882339F0C7015F
:10564000ACDF81110093A4021150F4CF8FEF8E8F45
:105650000F900FBE0FB6F8940F921D8D7E0188E05B
:10566000E80EF11C01E0111654F48885882339F006
:10567000C70193DF81110093A4021150F4CF8FEF83
:105680008D8F0F900FBEDF91CF911F910F91FF90E3
:10569000EF9008950F920FB6F8940F920BB60F92F9
:1056A0000CB60F921F9211242F923F924F925F924D
:1056B0006F927F928F929F92AF92BF92CF92DF9222
:1056C000EF92FF920F931F932F933F934F935F930C
:1056D0006F937F938F939F93AF93BF93CF93DF93FA
:1056E000EF93FF93A0914D03B0914E030DB60D9231
:1056F0000EB60D9280918102882321F081E0809383
:10570000A4025EC01092A402A0914D03B0914E037A
:10571000E0914D03F0914E032D913C918789908D3E
:1057200082179307A8F080914D0390914E038091CA
:105730004D0390914E03279A2F9A2FEF87EA91E617
:10574000215080409040E1F700C000001F9AF5CF43
:105750008091760369E001C08150482F50E0649F3A
:105760009001659F300D1124F901EE5AFC4F908194
:10577000992391F3A181B28112960D90BC91A02D35
:10578000B283A1832B5A3C4FA217B30731F4129670
:105790002D913C9113973283218399E0949FF001DE
:1057A000959FF00D1124EE5AFC4F0180F281E02DFF
:1057B0002681378130934E0320934D0380937603E7
:1057C000A0914D03B0914E03CD91CDBFDD91DEBFD1
:1057D000FF91EF91DF91CF91BF91AF919F918F9109
:1057E0007F916F915F914F913F912F911F910F91F9
:1057F000FF90EF90DF90CF90BF90AF909F908F90F1
:105800007F906F905F904F903F902F901F900F90E0
:105810000CBE0F900BBE0F900FBE0F9008958F928D
:105820009F92AF92BF92CF92DF92EF92FF920F932F
:105830001F93CF93DF930FB6F8940F92809181025C
:1058400081508093810280918102882311F080E051
:10585000EBC080914C038823D1F3C0E0D0E029E075
:10586000F22EEE24E39480914203882339F1E091F3
:105870004703F0914803C681D781CE010C9648DEDC
:105880008E010E5F1F4FC80143DE9E898091760313
:10589000891710F490937603F99EC0011124B80182
:1058A0008E5A9C4F59DEE0914D03F0914E039E8934
:1058B00086899817C0F2E092A402D5CFCD2B11F0C3
:1058C0000E943612E090A302EE2009F4A6C089E0FF
:1058D000B82EAA24A394CC24CA94DC2C80918102F3
:1058E000811189C0C0914F03D09150032196D0936C
:1058F0005003C0934F032097B9F480912E039091E9
:105900002F0320912C0330912D0330932F032093EC
:105910002E0390932D0380932C03809151038F5F6E
:10592000809351030E94361280917F0290918002F1
:10593000F12CC817D90708F44EC0E0912E03F0915E
:105940002F038081811105C0D0928002C0927F0216
:1059500042C0E0912E03F0912F030580F681E02DE7
:1059600006811781D80112968D919C911397C817C3
:10597000D90728F49093800280937F022CC04801BD
:10598000B2E08B0E911CC401C3DDF80184899589B6
:10599000892B19F0C8010C96BBDDD80156968C9165
:1059A00090917603981710F480937603B89EC00107
:1059B0001124B4018E5A9C4FCFDDE0914D03F0913C
:1059C0004E03D80156969C918689981708F4B5CF56
:1059D000FF24F394B2CFE0914D03F0914E03E6899A
:1059E000BE9EF0011124EE5AFC4F8081823048F0B7
:1059F000FF24F39406C08091A3028F5F8093A302DB
:105A0000F12C8091A402811101C0F110A092A40296
:105A1000EA94E11063CF1092A3028091A40288233C
:105A200009F415CF37DE81E00F900FBEDF91CF91E3
:105A30001F910F91FF90EF90DF90CF90BF90AF90AC
:105A40009F908F9008950F931F93CF93DF938C01B6
:105A5000FB01808191818F3F2FEF920721F4E801B4
:105A6000AF81B8850EC0D801139612962D913C9146
:105A70001397E901488159818417950710F0D901DE
:105A8000F4CF12968D919C91139793838283EC01AE
:105A9000FD83EC83B583A4831396FC93EE93129756
:105AA00011870087F80180818F5F8083DF91CF911C
:105AB0001F910F910895EF92FF920F931F93CF9331
:105AC000DF931F92CDB7DEB77C0100914F03109199
:105AD000500380914D0390914E030296698318DD27
